:020000040800F2
:100000003807002089010008650E0008250B00084C
:10001000C70B000829050008ED27000800000000B4
:100020000000000000000000000000008917000828
:100030001109000800000000B1150008511A00085D
:10004000A3010008A3010008A3010008A301000800
:10005000A3010008A3010008A3010008A3010008F0
:10006000A3010008A3010008A3010008A3010008E0
:10007000A3010008A3010008A3010008A3010008D0
:10008000A3010008A3010008A3010008A3010008C0
:10009000A3010008A3010008A3010008A3010008B0
:1000A000A3010008A3010008A3010008A3010008A0
:1000B000A3010008A3010008A3010008A301000890
:1000C000A3010008A3010008A3010008A301000880
:1000D000A30100084D230008A3010008A3010008A4
:1000E000A3010008A3010008A301000800F002F822
:1000F00000F03AF80AA090E8000C82448344AAF188
:100100000107DA4501D100F02FF8AFF2090EBAE885
:100110000F0013F0010F18BFFB1A43F0010318473B
:10012000E030000000310000103A24BF78C878C1E8
:10013000FAD8520724BF30C830C144BF04680C60ED
:10014000704700000023002400250026103A28BF35
:1001500078C1FBD8520728BF30C148BF0B60704739
:100160001FB51FBD10B510BD00F031F81146FFF7E7
:10017000F7FF02F03DFB00F04FF803B4FFF7F2FF8A
:1001800003BC00F057F800000948804709480047C1
:10019000FEE7FEE7FEE7FEE7FEE7FEE7FEE7FEE737
:1001A000FEE7FEE704480549054A064B7047000094
:1001B000AD1A0008ED0000083801002038070020C3
:1001C0003803002038030020704770477047754699
:1001D00000F02CF8AE4605006946534620F00700B3
:1001E000854618B020B5FFF7DDFFBDE820404FF091
:1001F00000064FF000074FF000084FF0000B21F011
:100200000701AC46ACE8C009ACE8C009ACE8C009DD
:10021000ACE8C0098D46704710B50446AFF30080C6
:100220002046BDE81040FFF7A8BF00000048704717
:10023000D400002001491820ABBEFEE726000200D2
:100240007047000070B50446A07800B970BD6578AD
:10025000207800F09EFC20B16421284600F0ACFC20
:1002600005462C480078F8B12078E8B12078294973
:100270000978884218D021782648007800F054FC8C
:1002800090B10020234908700021084600F086FD47
:100290000021012000F082FD0021022000F07EFDFF
:1002A0000021032000F07AFD20781A490870207898
:1002B000092829D2DFE800F005080C1014181C20CA
:1002C000240000F06FFA22E0284600F0CDF91EE08D
:1002D000284600F02DFA1AE0284600F091FA16E0C0
:1002E000284600F087F912E0284600F01FF90EE0DA
:1002F000284600F045F90AE0284600F057FA06E0E3
:10030000284600F0DBF902E000F04CFA00BF00BF25
:1003100000BF9BE71900002001460A48807878B1A9
:1003200008480078087007484078487001208870B5
:100330000448406848600020024A907001207047DD
:100340000020FCE70000002000BF0349086809689E
:100350008842FAD1704700001000002000B585B037
:1003600001F07AFB0121042001F084F901218803C6
:1003700001F080F94FF40070ADF8100018208DF8EE
:10038000130003208DF8120004A9224800F0E4FABB
:100390004FF48060ADF8100004208DF8130004A91C
:1003A0001C4800F0D9FA4FF4165000900020ADF828
:1003B0000400ADF80600ADF80800ADF80C000C2004
:1003C000ADF80A006946144802F02EF8012240F206
:1003D0002551114802F002F800F02EF801210E48D4
:1003E00001F0C6FF00200D490870486008810C49E3
:1003F00008703220487000208870486009490870F1
:1004000009490870094908700949087009490870C4
:1004100005B000BD00080140003801406C0000201C
:10042000000000200C0000200D000020180000201B
:10043000080000200900002008B54FF4A06000F07B
:100440004BFD25208DF8000001208DF801008DF86E
:1004500002008DF80300684600F006FD08BD0000AC
:1004600000B5FFF771FF024608484068101A40F6D1
:10047000B831884203D900200449087000BD034800
:100480000078012800D1F9E70020F7E76C00002090
:1004900010B50446FFF758FF19494860084600891F
:1004A000401C0881012008701648174909884454E7
:1004B00015490988481CC11700EB91618911A0EB0F
:1004C0008111114A1180204600F0C4F90F480078CC
:1004D00000B110BD502C06D101200D49087000203C
:1004E0000C490870F5E70A48007818B1204601F079
:1004F0000FF802E0204600F0FBFF00BFE9E7000034
:100500006C000020780000200A0000200900002074
:100510000D0000200C00002002480068401C01492A
:10052000086070471000002000BFFEE710B50446C9
:100530000121002000F010FC0121084600F00CFC15
:100540000121022000F008FC0121032000F004FC3E
:100550002146002000F022FC2146012000F01EFC74
:100560002146022000F01AFC2146032000F016FC70
:100570000248047302200149487310BD1A0000208C
:100580002DE9F04104460121002000F0E5FB0121A6
:10059000084600F0E1FB0121022000F0DDFB012113
:1005A000032000F0D9FB204602F094F907460F49DA
:1005B00002F0A4F9064602F06DF9C5B22946002002
:1005C00000F0ECFB2946012000F0E8FB2146022068
:1005D00000F0E4FB2146032000F0E0FB0448047334
:1005E000072003494873BDE8F0810000CDCCCC3D25
:1005F0001A0000202DE9F04104460121002000F0FE
:10060000ABFB0121084600F0A7FB0121022000F00E
:10061000A3FB0121032000F09FFB204602F05AF9C2
:1006200007460F4902F06AF9064602F033F9C5B2EF
:100630002146002000F0B2FB2146012000F0AEFB75
:100640002946022000F0AAFB2946032000F0A6FB61
:1006500004480473082003494873BDE8F081000092
:10066000CDCCCC3D1A00002010B504460021084630
:1006700000F072FB0021012000F06EFB002102203F
:1006800000F06AFB0021032000F066FB21460020F9
:1006900000F084FB2146012000F080FB214602206F
:1006A00000F07CFB2146032000F078FB0248047335
:1006B00001200149487310BD1A0000202DE9F041C6
:1006C00004460021084600F047FB0021012000F00D
:1006D00043FB0021022000F03FFB0021032000F03B
:1006E0003BFB204602F0F6F807460F4902F006F9F8
:1006F000064602F0CFF8C5B22946002000F04EFBB6
:100700002946012000F04AFB2146022000F046FB6A
:100710002146032000F042FB0448047305200349EE
:100720004873BDE8F0810000CDCCCC3D1A0000201C
:100730002DE9F04104460021084600F00DFB0021A0
:10074000012000F009FB0021022000F005FB002140
:10075000032000F001FB204602F0BCF807460F49D9
:1007600002F0CCF8064602F095F8C5B2214600200A
:1007700000F014FB2146012000F010FB2946022066
:1007800000F00CFB2946032000F008FB044804732A
:10079000062003494873BDE8F0810000CDCCCC3D74
:1007A0001A00002010B500F049FB10BD10B504463A
:1007B0000121002000F0D0FA0121084600F0CCFA17
:1007C0000021022000F0C8FA0021032000F0C4FA42
:1007D0002146002000F0E2FA2146012000F0DEFA76
:1007E0002146022000F0DAFA2146032000F0D6FA72
:1007F0000248047303200149487310BD1A00002009
:1008000010B504460021084600F0A6FA0021012098
:1008100000F0A2FA0121022000F09EFA012103203B
:1008200000F09AFA2146002000F0B8FA2146012093
:1008300000F0B4FA2146022000F0B0FA214603206D
:1008400000F0ACFA0248047304200149487310BD5B
:100850001A00002070B50446112C07D0222C05D0B8
:10086000332C03D000202649087070BD244800783E
:10087000042808DA224801780078401C204A1070C9
:10088000204844540BE0002005E01E4A411C515C06
:100890001154411CC8B20328F7DB1A48C470184829
:1008A0000078042829DB17480078164949788842DF
:1008B00023D1144840781349897888421DD11148C2
:1008C00080781049C978884217D1112C01D10125AF
:1008D00004E0222C01D1022500E000250A4800781E
:1008E000854206D008480570012008490870FFF7C6
:1008F00059FF00200249087000BF00BFB5E70000A3
:10090000180000201400002008000020090000202A
:10091000704700B5034603E04FF47A7000F005F825
:10092000181EA3F10103F7D100BD00EBC001C900FF
:100930004FF0E0225161002191610521116100BF5A
:100940004FF0E021096901F480310029F8D0042139
:100950004FF0E022116170472DE9F0410246002579
:100960000026002000230024002791F803C00CF08B
:100970000F0591F803C00CF0100CBCF1000F03D070
:1009800091F802C04CEA050591F800C0BCF1000FD7
:1009900031D0146800202BE04FF0010C0CFA00F36A
:1009A000B1F800C00CEA03069E4220D183004FF04C
:1009B0000F0C0CFA03F7BC4305FA03FC4CEA0404E1
:1009C00091F803C0BCF1280F06D14FF0010C0CFACE
:1009D00000FCC2F814C00AE091F803C0BCF1480F53
:1009E00005D14FF0010C0CFA00FCC2F810C0401CFD
:1009F0000828D1D31460B1F800C0BCF1FF0F34DD7A
:100A0000546800202EE000F1080C4FF0010808FAAD
:100A10000CF3B1F800C00CEA03069E4221D183001A
:100A20004FF00F0C0CFA03F7BC4305FA03FC4CEA39
:100A3000040491F803C0BCF1280F05D100F1080CA3
:100A400008FA0CF8C2F8148091F803C0BCF1480F02
:100A500007D100F1080C4FF0010808FA0CF8C2F8B1
:100A60001080401C0828CED35460BDE8F0810000FF
:100A7000F0B50A46002300240021002500F00046BE
:100A8000B6F1004F02D11D4EF16901E01B4E7168B5
:100A9000C0F3034583B200F44016B6F5401F08D1F9
:100AA00021F07061154E766826F07066134F7E60F7
:100AB00012E000F48016B6F5801F06D1032606FA70
:100AC00005F4A14341F0706106E0460D360103FADA
:100AD00006F6B14341F0706122B1460D360103FACA
:100AE00006F6314300F00046B6F1004F02D1034E46
:100AF000F16101E0014E7160F0BD000000000140B5
:100B00000246002093680B400BB1012000E000205A
:100B1000704741617047016170470AB1016100E0AF
:100B20004161704700BFFEE70246012A01D1052955
:100B300003D0052A03D1012901D101207047012AE0
:100B400001D1042903D0042A03D1012901D10120B4
:100B5000F4E7012A01D1062903D0062A03D101298D
:100B600001D10120EAE7052A01D1022903D0022A96
:100B700003D1052901D10120E0E7052A01D1082987
:100B800003D0082A03D1052901D10120D6E700208E
:100B9000D4E70146881E07280CD2DFE800F00705DD
:100BA000090B0804060000BF00BF00BF00BF00BF64
:100BB000012070470020FCE702468A4201DD08461A
:100BC00070471046FCE700BFFEE7000008B50121B2
:100BD000042000F04FFD0121082000F04BFD102003
:100BE0008DF8030003208DF802000620ADF8000008
:100BF00069460C48FFF7B0FE3020ADF800006946AA
:100C00000848FFF7A9FE0A20ADF80000694606482B
:100C1000FFF7A2FE6020ADF8000069460248FFF72A
:100C20009BFE08BD00080140000C014010B50121E9
:100C3000084600F01FFD01210648FFF719FFFFF7E6
:100C4000C5FF00F00BF800F0F9F800200249087326
:100C5000487310BD000230001A00002000B589B0B2
:100C60000121042000F006FD0121082000F002FD12
:100C70000121084600F0DEFC0121022000F0DAFC30
:100C80000920ADF8200018208DF8230003208DF8EE
:100C9000220008A92D48FFF75FFE0120ADF82000D3
:100CA00008A92B48FFF758FE4020ADF8200008A9FE
:100CB0002648FFF751FE6320ADF818002320ADF859
:100CC00014000020ADF81A00ADF8160005A94FF089
:100CD000804001F045FA05A91E4801F041FA602064
:100CE000ADF804000120ADF806000020ADF80C00BE
:100CF000ADF80A0001A94FF0804001F0CDF80821BD
:100D0000C80601F015F901A94FF0804001F0D4F9AF
:100D10000821C80601F00EFA01A90E4801F0BCF83E
:100D200008210C4801F004F901A90A4801F06AF908
:100D30000821084801F0B6F90121880700F0ACFF4E
:100D40000121044800F0A8FF09B000BD00080140DF
:100D5000000C01400004004070B505460E463146C7
:100D6000284600F085FD35B1012D06D0022D07D0B3
:100D7000032D0BD107E0084C09E0074CE41C06E00A
:100D8000054CA41D03E0044C093400E070BD00BF15
:100D9000667000BFFAE700001A00002070B5064632
:100DA0000D46642D00DD64252946304600F0B4FD73
:100DB00036B1012E06D0022E07D0032E0BD107E04C
:100DC0000A4C09E0094CE41C06E0084CA41D03E0B1
:100DD000064C093400E070BD00BF2570002D01DD18
:100DE000012000E00020A07000BFF4E71A000020FE
:100DF00070B5054600212846FFF7D0FF022128469E
:100E0000FFF7AAFF35B1012D06D0022D07D0032D23
:100E10000BD107E0084C09E0074CE41C06E0064C47
:100E2000A41D03E0044C093400E070BD00BF0020A5
:100E3000A07000BFF9E700001A00002010B50020E4
:100E4000FFF7D6FF0120FFF7D3FF0220FFF7D0FF07
:100E50000320FFF7CDFF002001490873487310BD40
:100E60001A0000207047000070B5002100230F22F7
:100E7000C47804B3154C246804F4E064C4F5E06459
:100E8000210AC1F10403CA40447804FA03F18478CA
:100E90001440214309010E4C0678A155047804F052
:100EA0001F050124AC4005786D11AD0005F1E0256A
:100EB000C5F8004109E0047804F01F050124AC40A6
:100EC000044D0678761145F8264070BD0CED00E023
:100ED00000E400E080E100E002490143024A1160C1
:100EE000704700000000FA050CED00E010B5002886
:100EF00007DA0A07140E054A00F00F031B1FD4542B
:100F000003E00A07130E024A135410BD18ED00E067
:100F100000E400E070B500240EE00021204600F05F
:100F2000F4F8002504E0002000F0BEF9681CC5B20A
:100F3000802DF8DB601CC4B2082CEEDB70BD000015
:100F400008B50121082000F095FB14208DF803005E
:100F500003208DF802004FF48070ADF80000694660
:100F60000A48FFF7F9FC4FF40070ADF8000069463D
:100F70000648FFF7F1FC012211020448FFF7CDFDFE
:100F8000012251020148FFF7C8FD08BD000C0140D5
:100F900070B50546002419E080202041284008B1A2
:100FA000012000E0002002464FF400710E48FFF7D8
:100FB000B4FD012211020C48FFF7AFFD00224FF4EF
:100FC00080710948FFF7A9FD601CC4B2082CE3DB5F
:100FD000012211020448FFF7A0FD00224FF48071A6
:100FE0000148FFF79AFD70BD000C014010B50122C9
:100FF00051020A48FFF791FD012211020748FFF74D
:101000008CFD00224FF400710448FFF786FD00229A
:101010004FF480710148FFF780FD10BD000C0140C6
:1010200010B500224FF400710648FFF776FD01224B
:1010300011020448FFF771FD012251020148FFF738
:101040006CFD10BD000C014070B5002406E00025C9
:1010500000E06D1CB5F57A7FFBD3641CB4F57A7F94
:10106000F5D3FFF76DFFAE2000F00EF9D52000F0AC
:101070000BF9802000F008F9A82000F005F93F20C6
:1010800000F002F9D32000F0FFF8002000F0FCF897
:10109000402000F0F9F8A12000F0F6F8C82000F098
:1010A000F3F8DA2000F0F0F8122000F0EDF88120DB
:1010B00000F0EAF8CF2000F0E7F8D92000F0E4F8DB
:1010C000F12000F0E1F8DB2000F0DEF8302000F045
:1010D000DBF8A42000F0D8F8A62000F0D5F88D2089
:1010E00000F0D2F8142000F0CFF8AF2000F0CCF8D8
:1010F000FFF710FF70BD10B50246012000E050431D
:101100000B1EA1F10101FAD110BD70B505460C46C8
:1011100045F0B00000F0B8F8102141EA141000F0DA
:10112000B3F804F00F0000F0AFF870BD2DE9F04106
:1011300005460E461746721ED206110E6A1E52064C
:10114000100EFFF7E2FF002409E0A7F12001134A87
:1011500002EB0111085D00F0A7F8601CC4B2082C76
:10116000F3DB721ED206110E6A1E012303EB42024C
:10117000D0B2FFF7CAFF00240BE0A7F12001074A15
:1011800002EB011204F10801505C00F08DF8601CC4
:10119000C4B2082CF1DBBDE8F0810000942A0008FD
:1011A0002DE9F04780460E4617461D46002415E0FF
:1011B000281B411E0A20FFF79EFFB7FBF0F00A2113
:1011C000B0FBF1F201FB120000F130093019C1B29D
:1011D0004A464046FFF7AAFF601CC4B2AC42E7DBB8
:1011E000BDE8F0872DE9F04780460E4617461D46BC
:1011F000002412E0281B411E0220FFF77CFFB7FBF2
:10120000F0F000F0010000F130093019C1B24A4697
:10121000404600F007F8601CC4B2AC42EADBBDE80F
:10122000F08700002DE9F04105460E461746721E74
:101230009206110E6A1ED0B2FFF767FF002409E084
:10124000A7F12001054A02EB8101085D00F02CF8AE
:10125000601CC4B2042CF3DBBDE8F08184300008CC
:101260002DE9F04107460E461546002407E02A5DA9
:101270003019C1B23846FFF759FF601CC4B2285D6F
:101280000028F4D1BDE8F08110B50446FFF7AEFEAA
:101290007820FFF77DFE0020FFF77AFE2046FFF75B
:1012A00077FEFFF7BDFE10BD10B50446FFF79EFEAA
:1012B0007820FFF76DFE4020FFF76AFE2046FFF71B
:1012C00067FEFFF7ADFE10BD08B501210C2000F050
:1012D000D1F94FF48070ADF8000010208DF80300B4
:1012E00003208DF8020069460F48FFF735FB4FF4E5
:1012F00080710D48FFF70DFC4FF40060ADF8000061
:1013000004208DF8030069460748FFF725FB00F02D
:101310003DFA5A2000F084FAC820FFF7FAFA0020BC
:101320000249087008BD00000008014028000020A4
:1013300010B56B48007806287ED2DFE800F0032362
:1013400097A2ADBF5A2000F06BFA3220FFF7E1FA06
:1013500001F0DCF80446634804800F2C0EDAFFF736
:1013600021FA3220FFF7D5FA01205D4908700020EC
:101370005D4908706420FFF7CCFA02E03220FFF7E5
:1013800073F9AAE05848007818BBFFF70BFA8720DA
:1013900000F046FA4FF49670FFF7BBFAB42000F065
:1013A0003FFA4FF4FA70FFF7B4FA01F0AFF80446D1
:1013B0004C4844800F2C01DA012000E0002049490C
:1013C000C8714FF49670FFF7A4FA012046490870DF
:1013D0004BE0FFF7E7F92D2000F022FA4FF496706A
:1013E000FFF797FA002000F01BFA4FF4FA70FFF7AE
:1013F00090FA01F08BF804463A4884800F2C01DA09
:10140000012000E00020374908725A2000F008FA55
:101410004FF4FA70FFF77DFA3248C07988B9314845
:10142000007A70B92F4840882E498988884204DBA9
:1014300002202B49087015E04BE003202849087072
:1014400010E02848C07918B902202549087009E041
:101450002448007A18B903202149087002E00420CA
:101460001F49087000202149086036E05020FFF72E
:101470009DF94FF4C870FFF74CFA05201849087021
:101480002BE05020FFF7BCF94FF4C870FFF741FA8A
:1014900005201349087020E03C20FFF747F84FF47F
:1014A000FA70FFF736FA5020FFF780F94FF4967084
:1014B000FFF72FFA05200A4908700EE03C20FFF7DD
:1014C000D3F84FF4FA70FFF724FA002004490870AB
:1014D00003E000200249087000BF00BF10BD0000FB
:1014E00028000020C8000020300000202C00002030
:1014F00000B50246082A08DC0448027001200349AE
:101500008870FEF721FF0149486000BD00000020FF
:1015100000B50246592A2FD121480078042810DB53
:101520001F480078401E1F490B5C642B08DC1E48D6
:10153000437001201C498870FEF706FF1A49486075
:1015400014E017480078012810DB15480078401E89
:1015500014490B5C642B08DC1348437001201249CA
:101560008870FEF7F1FE1049486000BF00200F4967
:1015700008700B49087011E009480078102808DA53
:10158000074801780078401C054B18700548425404
:1015900004E00020054908700149087000BD000002
:1015A0000C000020B8000020000000200D000020EA
:1015B000704700001CB51948007860B10020174939
:1015C00008701748007817490870FFF7EBF80020FB
:1015D000154908701CBD1248007800B1FAE768464A
:1015E000FEF79AFEB8B1FEF7AFFE104908609DF80D
:1015F00000000D4908709DF801000D4908709DF824
:10160000010028B9FFF7CEF800200749087002E072
:101610006846FEF717FE00BFDCE700000900002067
:101620000800002068000020600000205C0000200E
:101630006100002029B1064AD2690243044BDA61F5
:1016400004E0034AD2698243014BDA61704700002B
:101650000010024029B1064A12690243044B1A6184
:1016600004E0034A12698243014B1A61704700008B
:101670000010024029B1064A92690243044B9A6164
:1016800004E0034A92698243014B9A61704700006B
:101690000010024029B1064AD2680243044BDA60C6
:1016A00004E0034AD2688243014BDA6070470000CD
:1016B0000010024030B500210022002400232D4DEF
:1016C0006D6805F00C0121B1042905D0082923D14A
:1016D00005E0294D056022E0274D05601FE0254DFE
:1016E0006D6805F47012234D6D6805F48034022591
:1016F00005EB92421CB9214D554305600BE01D4D91
:101700006D6805F400351DB11C4D5543056002E0C0
:10171000194D5543056002E0174D056000BF00BF3D
:10172000144D6D6805F0F0010909154D6B5C0568F5
:10173000DD4045600F4D6D6805F4E061090A104D0C
:101740006B5C4568DD4085600A4D6D6805F460514D
:10175000C90A0B4D6B5C4568DD40C560054D6D6881
:1017600005F44041890B074D6B5CC568B5FBF3F58B
:10177000056130BD0010024000127A0000093D00F2
:1017800031000020410000207047000000B589B002
:1017900001210420FFF74EFF01210820FFF76AFF17
:1017A0008020ADF8200018208DF8230003208DF84C
:1017B000220008A91848FFF7CFF8184800F078FA77
:1017C0004720ADF8140044F61F60ADF81800002063
:1017D000ADF81600ADF81A0005A9104800F0C0FCDD
:1017E0006020ADF804000120ADF8060040F2DB50A7
:1017F000ADF80A000020ADF80C0001A9074800F080
:10180000A1FB0821054800F0EFFB0121034800F08F
:1018100043FA09B000BD0000000C01400008004080
:1018200070B50446B42C00DDB4244FF4FA60604374
:10183000B421B0FBF1F000F2F31085B2284600F0BD
:1018400001F870BD10B50446B4F5F97F01DC40F233
:10185000F31440F6C310844200DD044621460348D9
:1018600000F077FC0A20FFF754F810BD0008004094
:101870002DE9F04781468846B9F1000F09D0B9F14A
:10188000010F0BD0B9F1020F0DD0B9F1030F14D134
:101890000EE01F4C02262546042710E01C4C1026A3
:1018A000254620270BE01B4C02262546082706E08C
:1018B000184C20262546402701E0BDE8F08700BFF0
:1018C000B8F1000F06D0B8F1010F0CD0B8F1020F3B
:1018D0001BD111E031462046FFF71DF93946284655
:1018E000FFF717F911E031462046FFF712F93946A4
:1018F0002846FFF710F908E031462046FFF709F9BE
:1019000039462846FFF705F900BF00BF00BFD4E7FE
:1019100000080140000C014070B504460D46642DDE
:1019200000DD642534B1012C0AD0022C0ED0032C2A
:1019300016D110E029464FF0804000F008FC0FE07F
:1019400029464FF0804000F008FC09E02946054890
:1019500000F001FC04E02946024800F0F8FB00BF5B
:1019600000BF70BD0004004010B500F001F810BDCC
:101970000CB50020019000903348006840F480309E
:101980003149086000BF3048006800F40030009022
:101990000198401C0190009818B90198B0F5A06F0B
:1019A000F1D12948006800F4003010B10120009006
:1019B00001E0002000900098012843D123480068EE
:1019C00040F01000214908600846006820F003003C
:1019D00008600846006840F0020008601A48406845
:1019E000194948600846406848600846406840F425
:1019F000806048600846406820F47C1048600846D3
:101A0000406840F4E81048600846006840F0807084
:101A1000086000BF0C48006800F000700028F9D092
:101A20000948406820F003000749486008464068BC
:101A300040F00200486000BF0348406800F00C001E
:101A40000828F9D10CBD000000100240002002401F
:101A500010B5FEF761FD10BD10B5134800684FF4D6
:101A60007A71B0FBF1F4B4F1807F01D3012011E071
:101A700024F07F40401E4FF0E02148610F214FF0DD
:101A8000FF30FFF733FA00204FF0E0218861072094
:101A90000861002008B100BFFEE70F214FF0FF30C2
:101AA000FFF724FA10BD00004800002010B51348CD
:101AB000006840F00100114908600846406810497C
:101AC00008400E494860084600680E4908400B4926
:101AD00008600846006820F48020086008464068D6
:101AE00020F4FE0048604FF41F008860FFF73CFFC1
:101AF0004FF000600449086010BD00000010024073
:101B00000000FFF8FFFFF6FE08ED00E038B5012108
:101B10001020FFF7AFFD4FF40050ADF8000010208B
:101B20008DF8030003208DF8020069464348FEF754
:101B300013FF4FF400514148FEF7EDFF6420FEF71C
:101B4000E8FE002410E04FF400513C48FEF7E1FFAE
:101B5000C820FEF7DEFE4FF400513848FEF7DBFFE9
:101B6000C820FEF7D6FE641C032CECDBFFF76CFAF2
:101B70006420FEF7CEFEFFF7CDF931A20121084621
:101B8000FFF76EFB31A201210220FFF769FB4FF442
:101B90009670FEF7BEFEFFF749F82EA20121022043
:101BA000FFF75EFB4FF49670FEF7B3FE00F02AFBE2
:101BB0002AA201210220FFF753FB4FF49670FEF793
:101BC000A8FEFEF7CBFB27A201210220FFF748FB6E
:101BD0004FF49670FEF79DFEFFF776FB23A20121DE
:101BE0000220FFF73DFB4FF49670FEF792FEFFF7E1
:101BF00091F913A201210846FFF732FB1DA20A2129
:101C00000120FFF72DFB1CA201210220FFF728FB7A
:101C10001BA208210220FFF723FB032300220C2133
:101C20000220FFF7BDFA17A201210320FFF718FBDE
:101C300016A201210420FFF713FB38BD001001405C
:101C4000536D61727443617200000000496E6974E3
:101C50002E2E2E004D6F746F724F4B0054726163C5
:101C60006B4F4B004254204F4B21000041766F696F
:101C7000644F4B004E4F00004D616E75616C00006B
:101C8000537064005265616479000000436F6E6EAA
:101C9000656374204254000021B1028842F00102C1
:101CA000028004E002884FF6FE731A4002807047FB
:101CB00010B504466848844208D10121C014FFF7DA
:101CC000E9FC0021E014FFF7E5FCC4E0B4F1804F2B
:101CD00008D101210846FFF7BDFC00210120FFF7D4
:101CE000B9FCB8E05D48844208D101210220FFF729
:101CF000B1FC00210220FFF7ADFCACE05848844263
:101D000008D101210420FFF7A5FC00210420FFF7E2
:101D1000A1FCA0E05348844208D101210820FFF72C
:101D200099FC00210820FFF795FC94E04E4884427E
:101D300008D101211020FFF78DFC00211020FFF7B2
:101D400089FC88E04948844208D101212020FFF71E
:101D500081FC00212020FFF77DFC7CE04448844288
:101D600008D101214014FFF795FC00216014FFF712
:101D700091FC70E03F48844209D10121C804FFF77B
:101D800089FC00214FF40020FFF784FC63E03A480F
:101D9000844209D101210805FFF77CFC00214FF4A2
:101DA0008010FFF777FC56E03448844209D10121C6
:101DB0004805FFF76FFC00214FF40010FFF76AFCA5
:101DC00049E02F48844208D101214020FFF742FC1E
:101DD00000214020FFF73EFC3DE02A48844208D124
:101DE00001218020FFF736FC00218020FFF732FC24
:101DF00031E02548844208D101218015FFF72AFCF3
:101E00000021A015FFF726FC25E02048844209D1D7
:101E100001210804FFF73EFC00214FF48030FFF75A
:101E200039FC18E01A48844209D101214804FFF71F
:101E300031FC00214FF40030FFF72CFC0BE015487B
:101E4000844208D101218804FFF724FC00214FF4CB
:101E50008020FFF71FFC10BD002C01400004004053
:101E600000080040000C004000100040001400403A
:101E700000340140004C014000500140005401403A
:101E800000180040001C00400020004000400140BD
:101E9000004401400048014070B5002400220023A6
:101EA000058C4FF6FE7635400584028C8388048BC2
:101EB0004FF68F752C40B51E2C400D882C43751E97
:101EC0002A400D892A434D882A43144DA8420BD03D
:101ED000134DA84208D0134DA84205D0124DA84278
:101EE00002D0124DA84213D14FF6F7752A404D8902
:101EF0002A434FF6FB752A408D882A434FF6FF652B
:101F00002B404FF6FF552B408D892B43CD892B431A
:101F100083800483CD888586028470BD002C0140B7
:101F200000340140004001400044014000480140AD
:101F30000A460021018B4FF6F773194011430183C4
:101F40007047000070B5002400220023058C4FF676
:101F5000EF7635400584028C8388048B48F6FF7544
:101F60002C404FF6FF452C400D884FF6FF7606EAD1
:101F700005252C434FF6DF752A400D8906EA051525
:101F80002A434D8806EA05152A43154DA84202D07A
:101F9000144DA8421DD14FF67F752A404D894FF64A
:101FA000FF7606EA05152A434FF6BF752A408D884D
:101FB00006EA05152A434FF6FF352B404FF2FF7511
:101FC0002B408D8906EA85052B43CD8906EA8505D8
:101FD0002B4383800483CD880587028470BD000075
:101FE000002C0140003401400A460021018B4FF2D1
:101FF000FF7319404FF6FF7303EA0223194301836D
:102000007047000070B5002400220023058C4FF6B5
:10201000FF6635400584028C8388848B4FF68F756C
:102020002C404FF6FC752C400D882C434FF6FF5585
:102030002A400D894FF6FF7606EA05252A434D888A
:1020400006EA05252A43154DA84202D0144DA842A0
:102050001DD14FF2FF752A404D894FF6FF7606EAF3
:1020600005252A434FF6FF352A408D8806EA0525C7
:102070002A434EF6FF752B404DF6FF752B408D8998
:1020800006EA05152B43CD8906EA05152B43838007
:102090008483CD888587028470BD0000002C0140B8
:1020A000003401400A460021818B4FF6F773194036
:1020B000114381837047000070B500220023002483
:1020C000058C4EF6FF7635400584038C8488828B20
:1020D00048F6FF752A404FF6FF452A400D884FF617
:1020E000FF7606EA05252A434DF6FF752B400D893C
:1020F00006EA05352B434D8806EA05352B430B4D83
:10210000A84202D00A4DA84208D14BF6FF752C40D8
:102110008D894FF6FF7606EA85152C4384808283ED
:10212000CD88A0F84050038470BD0000002C014011
:10213000003401400A460021818B4FF2FF731940A1
:102140004FF6FF7303EA02231943818370478186A8
:1021500070470187704781877047A0F8401070472B
:10216000002202881D4B98420ED01D4B98420BD086
:10217000B0F1804F08D01B4B984205D01A4B9842C3
:1021800002D01A4B984204D14FF68F731A404B88F5
:102190001A43174B984207D0164B984204D04FF67B
:1021A000FF431A40CB881A4302808B8883850B88B3
:1021B00003850A4B98420BD0094B984208D00E4B2E
:1021C000984205D00D4B984202D00D4B984201D158
:1021D0000B7A03860123838270470000002C0140A4
:1021E000003401400004004000080040000C0040A2
:1021F0000010004000140040004001400044014035
:102200000048014008B501210820FFF733FA0420F7
:102210008DF8030003208DF802004FF47040ADF8F4
:10222000000069460148FEF797FB08BD000C01401D
:1022300010B500244FF480410F48FEF761FC08B14F
:1022400044F008044FF480510B48FEF759FC08B1E4
:1022500044F004044FF400510748FEF751FC08B164
:1022600044F002044FF400410348FEF749FC08B172
:1022700044F00104204610BD000C014010B5FFF7EA
:10228000D7FF044604F00800B8B13C20FEF78EFAF0
:102290000DE0FFF7CDFF044604F0020000B107E0B7
:1022A00004F0010000B103E03C20FEF77FFAF0E704
:1022B00000BF3C20FEF73CFA10BD04F00100B8B1AD
:1022C0003C20FEF79DFA0DE0FFF7B2FF044604F054
:1022D000040000B107E004F0080000B103E03C2076
:1022E000FEF78EFAF0E700BF3C20FEF7E7F9E3E7E0
:1022F00004F0040030B104F0020018B93C20FEF7ED
:1023000017FAD9E704F0040030B904F0020018B15C
:102310003C20FEF7D3F9CFE704F0040030B104F01D
:10232000020018B14620FEF79FF9C5E71CB9462008
:10233000FEF79AF9C0E70F2C02D1FEF733FABBE79C
:102340004620FEF791F900BFB6E7000010B540F255
:102350002551064800F018F838B1044800F0D0F8CC
:10236000C4B22046FEF794F800BF10BD003801400B
:1023700021B1828942F40052828104E082894DF6C3
:10238000FF731A408281704770B502460024002313
:102390000025002040F66A16B14200D100BFC1F30B
:1023A000421501F01F03012606FA03F3012D02D1A5
:1023B0009689334006E0022D02D1168A334001E0AF
:1023C000968A33400C12012606FA04F4168834402B
:1023D00013B10CB1012000E0002070BDF0B5034640
:1023E000002400260025002040F66A17B94200D1DB
:1023F00000BF1846C1F3421401F01F06012707FA77
:1024000006F5012C01D10C3004E0022C01D1103072
:1024100000E014301AB107682F43076002E0076834
:10242000AF430760F0BD00002DE9F04786B00546D8
:102430000E460024A24600BFA1460027B08900B185
:1024400000BF2F462C8A4CF6FF700440F0880443EE
:102450002C82AC894EF6F3100440B08831890843D1
:10246000718908430443AC81AC8A4FF6FF400440B5
:10247000B0890443AC8201A8FFF71CF91F488742CA
:1024800002D1DDF810A001E0DDF80CA0A88900F46D
:10249000004040B10AEBCA0000EB0A103168490065
:1024A000B0FBF1F807E00AEBCA0000EB0A10316854
:1024B0008900B0FBF1F86420B8FBF0F004012009BA
:1024C000642101FB1089A88900F4004040B132204A
:1024D00000EBC900B0FBF1F000F00700044308E096
:1024E000322000EB09106421B0FBF1F000F00F0086
:1024F00004432C8106B0BDE8F0870000003801409D
:1025000001468888C0F308007047000070B540F2AB
:10251000E7354FF480711F48FEF7FDFA0F20FEF7F4
:1025200004FA4FF480711B48FEF7F3FA00260AE024
:102530000A20FEF7FAF9701C0646B0F5FA7F02D9B8
:1025400040F2E73070BD4FF400611248FEF7D8FA50
:102550000028EDD0002409E00A20FEF7E6F90A344D
:1025600047F23050844201D9044606E04FF400613E
:102570000848FEF7C5FA0028EED100BF44B13A2062
:10258000B4FBF0F085B2B5F5C87F01DD4FF4C87536
:102590002846D7E70008014010B5FEF7BBFC68A24B
:1025A00001210846FEF75CFEFDF75AFF08B167A05F
:1025B00000E067A0044622460A210120FEF750FEF3
:1025C0006448007820B1012808D0022812D10BE01D
:1025D00061A201210220FEF743FE11E060A2012169
:1025E0000220FEF73DFE0BE05FA201210220FEF774
:1025F00037FE05E05EA201210220FEF731FE00BF9A
:1026000000BF54480078002853D15AA20821022064
:10261000FEF726FE0323584802780C210220FEF71D
:10262000BFFD5648007809283CD2DFE800F0050BD2
:1026300011171D23292F350051A201210320FEF778
:102640000FFE35E050A201210320FEF709FE2FE026
:102650004EA201210320FEF703FE29E04CA2012136
:102660000320FEF7FDFD23E04AA201210320FEF72F
:10267000F7FD1DE048A201210320FEF7F1FD17E060
:1026800046A201210320FEF7EBFD11E044A2012147
:102690000320FEF7E5FD0BE042A201210320FEF737
:1026A000DFFD05E032A201210320FEF7D9FD00BFC6
:1026B00039E028480078012811D13BA208210220E6
:1026C000FEF7CEFD0423394802780B210220FEF7E5
:1026D00089FD37A201210320FEF7C2FD23E037A2C6
:1026E00001210320FEF7BCFD35480288032319466B
:1026F0001846FEF755FD33A207210320FEF7B0FD73
:102700002F484288032309211846FEF749FD2EA2CF
:102710000D210320FEF7A4FD2948828803230F2101
:102720001846FEF73DFDFDF79BFE08B127A000E02F
:102730002AA00446224601210420FEF791FD10BD87
:10274000536D617274436172000000004F4B0000D2
:102750004E4F0000680000204D616E75616C0000F6
:10276000547261636B00000041766F696400000081
:102770003F000000537064006100002060000020F2
:1027800053544F500000000046574400462D52005D
:1027900052000000422D520042574400422D4C008E
:1027A0004C000000462D4C00533A00006900002008
:1027B000547261636B696E672E2E2E00463A0000DC
:1027C000C80000204C3A0000523A00004254204316
:1027D0006F6E6E65637465640000000042542044AF
:1027E0006973636F6E6E65637400000000BFFEE77F
:1027F000FFF78CF941E0FDF7A7FD0446FEF7DAFE8E
:102800001E48007868B91E480068201AB0F5FA7FA3
:1028100007D91C48007820B1FDF7C4FF00201949F2
:10282000087016480078012805D1FFF701FD164908
:102830000870FFF723FD11480078022801D1FEF748
:1028400077FD12480068401C10490860322803D305
:1028500000200860FFF7A0FE4FF400510C48FEF77F
:1028600058F90520FEF755F84FF400510848FEF7D7
:1028700052F90520FEF74DF800BFBCE70800002024
:102880005C0000206000002069000020640000203F
:1028900000100140C10DD1F19E0206DB4FEA00237A
:1028A00043F0004323FA02F07047004207D54FEA95
:1028B0004001B1F1FE4F02D24FF00000704710B559
:1028C00000F09DF849922480002070476FEA2000B4
:1028D00070470000B0FA80F310FA03F2C3F19D03D1
:1028E0000AD0D90501EB1220530638BF704700F11A
:1028F000010008BF20F00100704700004FF47F0C7A
:102900001CEAD0121EBF1CEAD11392EA0C0F93EA04
:102910000C0F00F0478090EA010F48BF42F480722C
:102920004FF0004C4CEA00204CEA012102EB03027C
:10293000A0FB0113A2F50002002918BF43F0010318
:102940005B0028BF4FEA330342EB22425FEA132CBD
:102950004CEBC2502EBFBCEB436FB2F57C0F7047FF
:102960004FEA036CBCF1004F08BF20F00100B2F544
:102970007C0F38BF70470BD582F0FF0212F5803F05
:10298000C8BF704700F1C040D8BF00F0004070479A
:1029900000F5000C5FEA4C0C48BF7047B0F1C04036
:1029A00000F073B890EA010F0CEAD11348BF42F46B
:1029B0008072624538BF634504D280EA010000F0AE
:1029C0000040704710B500F01AF800BF8900013EC2
:1029D00000F007B800F009B85FEA410C5FEA1C6C30
:1029E00008D080EA010000F050B85FEA400C5FEACE
:1029F0001C6CF6D14FF00040A0F5800070470EF13E
:102A0000020E2EF0030E5EF8044B244204D44FEA6B
:102A10004102B2F17F4F11D84FEA4003B3F17F4F2B
:102A20000CD80ED14FEAD07CB2F17F4F0CEB4C0C9E
:102A30000CF1020C08BF4CEBD17C04E04FF0080C09
:102A400001E04FEAD17C0CEB4C0324FA03F404F0D0
:102A50000704B4F1040C06D20EEB840CBDE8104060
:102A60004CF0010C6047DFE80CF0070802024FF061
:102A70000040A0F5800010BD0846420018BFD2F10A
:102A8000807288BF00F0004010BDFF2141EAD050A5
:102A9000C0057047000000000000000000000000BA
:102AA00000000000000000F80000000000000033FB
:102AB0003000000000100C06100C060000000000A2
:102AC0000000000040C07840C0784000043F04048B
:102AD0003F040400007088FC08300000001820FF4C
:102AE000211E0000F008F000E018000000211C0387
:102AF0001E211E0000F00888700000001E21232403
:102B00001927211010160E00000000000000000020
:102B100000000000000000E01804020000000007B0
:102B20001820400000020418E000000000402018B7
:102B300007000000404080F0804040000202010F8A
:102B400001020200000000F0000000000101011F6E
:102B500001010100000000000000000080B07000D2
:102B60000000000000000000000000000001010162
:102B700001010101000000000000000000303000F1
:102B800000000000000000008060180400601806CB
:102B90000100000000E010080810E000000F102005
:102BA00020100F00001010F8000000000020203F4F
:102BB00020200000007008080888700000302824D9
:102BC000222130000030088888483000001820207A
:102BD00020110E000000C02010F80000000704249F
:102BE000243F240000F808888808080000192120E4
:102BF00020110E0000E0108888180000000F11203E
:102C000020110E0000380808C83808000000003FF6
:102C1000000000000070880808887000001C222155
:102C200021221C0000E010080810E0000000312202
:102C300022110F00000000C0C000000000000030A2
:102C400030000000000000800000000000008060F4
:102C50000000000000008040201008000001020475
:102C6000081020004040404040404000040404045C
:102C70000404040000081020408000000020100818
:102C800004020100007048080808F000000000304D
:102C900036010000C030C828E810E00007182724DB
:102CA00023140B000000C038E0000000203C230289
:102CB0000227382008F8888888700000203F2020EC
:102CC00020110E00C030080808083800071820201E
:102CD0002010080008F808080810E000203F202015
:102CE00020100F0008F88888E8081000203F2020F6
:102CF0002320180008F88888E8081000203F2000EA
:102D000003000000C0300808083800000718202021
:102D1000221E020008F808000008F808203F2101E0
:102D200001213F20000808F8080800000020203F8B
:102D30002020000000000808F8080800C0808080FB
:102D40007F00000008F888C028180800203F2001F4
:102D50002638200008F8080000000000203F20204E
:102D60002020300008F8F800F8F80800203F003F65
:102D7000003F200008F830C00008F808203F20007D
:102D800007183F00E01008080810E0000F1020208E
:102D900020100F0008F808080808F000203F210163
:102DA00001010000E01008080810E0000F182424BA
:102DB00038504F0008F8888888887000203F20002D
:102DC000030C3020007088080808380000382021E3
:102DD00021221C00180808F8080818000000203FED
:102DE0002000000008F808000008F808001F202054
:102DF00020201F000878880000C838080000073825
:102E00000E010000F80800F80008F800033C070075
:102E1000073C0300081868808068180820302C03DD
:102E2000032C30200838C800C83808000000203FB4
:102E30002000000010080808C838080020382621A3
:102E400020201800000000FE020202000000007FA7
:102E500040404000000C30C00000000000000001B5
:102E60000638C00000020202FE00000000404040A0
:102E70007F000000000004020202040000000000C5
:102E80000000000000000000000000008080808042
:102E9000808080800002020400000000000000002A
:102EA00000000000000080808080000000192422C3
:102EB00022223F2008F8008080000000003F1120FF
:102EC00020110E000000008080800000000E112004
:102ED00020201100000000808088F800000E1120E2
:102EE00020103F200000808080800000001F2222F0
:102EF00022221300008080F0888888180020203F5C
:102F0000202000000000808080808000006B94946E
:102F10009493600008F8008080800000203F21002A
:102F200000203F2000809898000000000020203FF3
:102F300020200000000000809898000000C08080E1
:102F4000807F000008F8000080808000203F24027D
:102F50002D302000000808F8000000000020203F6D
:102F6000202000008080808080808000203F200022
:102F70003F20003F8080008080800000203F2100B3
:102F800000203F200000808080800000001F202063
:102F900020201F00808000808000000080FFA12092
:102FA00020110E000000008080808000000E1120A3
:102FB00020A0FF80808080008080800020203F2132
:102FC00020000100000080808080800000332424E5
:102FD00024241900008080E0808000000000001F91
:102FE000202000008080000000808000001F202042
:102FF00020103F20808080000080808000010E3003
:103000000806010080800080008080800F300C0363
:103010000C300F0000808000808080000020312E66
:103020000E312000808080000080808080818E7042
:103030001806010000808080808080000021302CF4
:103040002221300000000000807C0202000000000D
:10305000003F404000000000FF00000000000000B2
:10306000FF0000000002027C800000000040403FA2
:10307000000000000006010102020404000000003C
:103080000000000000000000005F000003000300DB
:10309000147F147F242A7F2A23130864364955227B
:1030A00000050300001C224141221C0014083E08B8
:1030B00008083E080050300008080808006060005A
:1030C000201008043E51493E00427F404261514E6B
:1030D0002141453B1814127F274545393C4A493068
:1030E00001710907364949360649291E003636005E
:1030F00000563600081422411414141441221408F6
:1031000002015109324979417E11117E7F494936C8
:103110003E4141227F41413E7F4949417F090901AA
:103120003E41497A7F08087F00417F412040413F6E
:103130007F0814637F4040407F020C027F04087FB9
:103140003E41413E7F0909063E41215E7F091966E5
:103150004649493101017F013F40403F1F20403F28
:103160007F201820631408630708700861514945DF
:10317000007F41410204081041417F000402010226
:103180004040404000010204205454787F484438B5
:10319000384444443844447F38545458087E090223
:1031A0000C52523E7F08047800447D402040443D4C
:1031B0007F10284400417F407C0418047C08047878
:1031C000384444387C1414080814147C7C08040423
:1031D00048545424043F44243C40407C1C20403C40
:1031E0003C403040442810280C50503C4464544C1F
:1031F0000008364100007F0041360800020102014C
:1032000020320008000000206C00000028010008A7
:103210008C3200086C000020CC060000440100083D
:10322000000000000000000000000000000000009E
:10323000000000000000000000000002000002008A
:10324000000200000200000000000000000000007A
:103250000000000000010203040102030406070845
:10326000090204060800000000A24A040000000051
:103270000000000001020304060708090000000026
:0C32800000000000000000000000000042
:04000005080000ED02
:00000001FF
